{
  "_format": "hh-sol-artifact-1",
  "contractName": "Whitelist",
  "sourceName": "contracts/Whitelist.sol",
  "abi": [
    {
      "inputs": [
        {
          "internalType": "uint8",
          "name": "_maxWhitelistedAddress",
          "type": "uint8"
        }
      ],
      "stateMutability": "nonpayable",
      "type": "constructor"
    },
    {
      "inputs": [],
      "name": "Whitelist__MaxNumberOfWhitelistedAddressCompleted",
      "type": "error"
    },
    {
      "inputs": [],
      "name": "addAddressToWhitelist",
      "outputs": [],
      "stateMutability": "nonpayable",
      "type": "function"
    },
    {
      "inputs": [
        {
          "internalType": "address",
          "name": "",
          "type": "address"
        }
      ],
      "name": "checkWhitelistAddress",
      "outputs": [
        {
          "internalType": "bool",
          "name": "",
          "type": "bool"
        }
      ],
      "stateMutability": "view",
      "type": "function"
    },
    {
      "inputs": [],
      "name": "maxWhitelistedAddress",
      "outputs": [
        {
          "internalType": "uint8",
          "name": "",
          "type": "uint8"
        }
      ],
      "stateMutability": "view",
      "type": "function"
    },
    {
      "inputs": [],
      "name": "numAlreadyWhitelisted",
      "outputs": [
        {
          "internalType": "uint8",
          "name": "",
          "type": "uint8"
        }
      ],
      "stateMutability": "view",
      "type": "function"
    }
  ],
  "bytecode": "0x608060405234801561001057600080fd5b5060405161058c38038061058c83398181016040528101906100329190610090565b806000806101000a81548160ff021916908360ff160217905550506100bd565b600080fd5b600060ff82169050919050565b61006d81610057565b811461007857600080fd5b50565b60008151905061008a81610064565b92915050565b6000602082840312156100a6576100a5610052565b5b60006100b48482850161007b565b91505092915050565b6104c0806100cc6000396000f3fe608060405234801561001057600080fd5b506004361061004c5760003560e01c806313f53d5114610051578063761da1d01461006f57806381bacbf01461009f5780638e7314d9146100bd575b600080fd5b6100596100c7565b60405161006691906102a0565b60405180910390f35b6100896004803603810190610084919061031e565b6100da565b6040516100969190610366565b60405180910390f35b6100a76100fa565b6040516100b491906102a0565b60405180910390f35b6100c561010b565b005b600060019054906101000a900460ff1681565b60016020528060005260406000206000915054906101000a900460ff1681565b60008054906101000a900460ff1681565b60008054906101000a900460ff1660ff16600060019054906101000a900460ff1660ff161115610167576040517f10687c2800000000000000000000000000000000000000000000000000000000815260040160405180910390fd5b600160003373ffffffffffffffffffffffffffffffffffffffff1673ffffffffffffffffffffffffffffffffffffffff16815260200190815260200160002060009054906101000a900460ff16156101f4576040517f08c379a00000000000000000000000000000000000000000000000000000000081526004016101eb90610404565b60405180910390fd5b60018060003373ffffffffffffffffffffffffffffffffffffffff1673ffffffffffffffffffffffffffffffffffffffff16815260200190815260200160002060006101000a81548160ff0219169083151502179055506001600060018282829054906101000a900460ff1661026a9190610453565b92506101000a81548160ff021916908360ff160217905550565b600060ff82169050919050565b61029a81610284565b82525050565b60006020820190506102b56000830184610291565b92915050565b600080fd5b600073ffffffffffffffffffffffffffffffffffffffff82169050919050565b60006102eb826102c0565b9050919050565b6102fb816102e0565b811461030657600080fd5b50565b600081359050610318816102f2565b92915050565b600060208284031215610334576103336102bb565b5b600061034284828501610309565b91505092915050565b60008115159050919050565b6103608161034b565b82525050565b600060208201905061037b6000830184610357565b92915050565b600082825260208201905092915050565b7f53656e6465722068617320616c7265616479206265656e2077686974656c697360008201527f7465640000000000000000000000000000000000000000000000000000000000602082015250565b60006103ee602383610381565b91506103f982610392565b604082019050919050565b6000602082019050818103600083015261041d816103e1565b9050919050565b7f4e487b7100000000000000000000000000000000000000000000000000000000600052601160045260246000fd5b600061045e82610284565b915061046983610284565b92508260ff0382111561047f5761047e610424565b5b82820190509291505056fea2646970667358221220fe2a9c79015d8fc11b94c020f09052318ddb17c990993bbd5d07c0854ed7b97b64736f6c63430008090033",
  "linkReferences": {},
  "deployedLinkReferences": {}
}